{
  "_format": "hh-sol-artifact-1",
  "contractName": "Doppelganger",
  "sourceName": "contracts/Doppelganger.sol",
  "abi": [
    {
      "stateMutability": "payable",
      "type": "fallback"
    },
    {
      "inputs": [
        {
          "internalType": "address",
          "name": "target",
          "type": "address"
        },
        {
          "internalType": "bytes",
          "name": "data",
          "type": "bytes"
        }
      ],
      "name": "__waffle__call",
      "outputs": [
        {
          "internalType": "bytes",
          "name": "",
          "type": "bytes"
        }
      ],
      "stateMutability": "nonpayable",
      "type": "function"
    },
    {
      "inputs": [
        {
          "internalType": "bytes",
          "name": "data",
          "type": "bytes"
        },
        {
          "internalType": "bytes",
          "name": "value",
          "type": "bytes"
        }
      ],
      "name": "__waffle__mockReturns",
      "outputs": [],
      "stateMutability": "nonpayable",
      "type": "function"
    },
    {
      "inputs": [
        {
          "internalType": "bytes",
          "name": "data",
          "type": "bytes"
        },
        {
          "internalType": "string",
          "name": "reason",
          "type": "string"
        }
      ],
      "name": "__waffle__mockReverts",
      "outputs": [],
      "stateMutability": "nonpayable",
      "type": "function"
    },
    {
      "inputs": [
        {
          "internalType": "bytes",
          "name": "data",
          "type": "bytes"
        },
        {
          "internalType": "bytes",
          "name": "value",
          "type": "bytes"
        }
      ],
      "name": "__waffle__queueReturn",
      "outputs": [],
      "stateMutability": "nonpayable",
      "type": "function"
    },
    {
      "inputs": [
        {
          "internalType": "bytes",
          "name": "data",
          "type": "bytes"
        },
        {
          "internalType": "string",
          "name": "reason",
          "type": "string"
        }
      ],
      "name": "__waffle__queueRevert",
      "outputs": [],
      "stateMutability": "nonpayable",
      "type": "function"
    },
    {
      "inputs": [
        {
          "internalType": "string",
          "name": "reason",
          "type": "string"
        }
      ],
      "name": "__waffle__receiveReverts",
      "outputs": [],
      "stateMutability": "nonpayable",
      "type": "function"
    },
    {
      "inputs": [
        {
          "internalType": "address",
          "name": "target",
          "type": "address"
        },
        {
          "internalType": "bytes",
          "name": "data",
          "type": "bytes"
        }
      ],
      "name": "__waffle__staticcall",
      "outputs": [
        {
          "internalType": "bytes",
          "name": "",
          "type": "bytes"
        }
      ],
      "stateMutability": "view",
      "type": "function"
    },
    {
      "stateMutability": "payable",
      "type": "receive"
    }
  ],
  "bytecode": "0x608060405234801561001057600080fd5b506118c9806100206000396000f3fe6080604052600436106100745760003560e01c8063ad92410d1161004e578063ad92410d14610191578063b8f48a29146101ba578063df377013146101e3578063e8fcd32c14610220576100d6565b806312cc29a0146101165780636db2a31a1461013f5780639891f72e14610168576100d6565b366100d65760001515600260009054906101000a900460ff161515146003906100d3576040517f08c379a00000000000000000000000000000000000000000000000000000000081526004016100ca9190611186565b60405180910390fd5b50005b60006100e061025d565b905060011515816020015115151415610105576101008160400151610832565b610113565b610112816060015161086f565b5b50005b34801561012257600080fd5b5061013d600480360381019061013891906113a3565b610877565b005b34801561014b57600080fd5b50610166600480360381019061016191906113a3565b6109b2565b005b34801561017457600080fd5b5061018f600480360381019061018a919061141b565b6109d0565b005b34801561019d57600080fd5b506101b860048036038101906101b39190611464565b610a05565b005b3480156101c657600080fd5b506101e160048036038101906101dc9190611464565b610a23565b005b3480156101ef57600080fd5b5061020a6004803603810190610205919061159a565b610b5e565b6040516102179190611682565b60405180910390f35b34801561022c57600080fd5b506102476004803603810190610242919061159a565b610c1f565b6040516102549190611682565b60405180910390f35b610265610d8f565b600080366040516102779291906116d4565b60405180910390209050600080828152602001908152602001600020604051806080016040529081600082015481526020016001820160009054906101000a900460ff161515151581526020016002820180546102d3906110ae565b80601f01602080910402602001604051908101604052809291908181526020018280546102ff906110ae565b801561034c5780601f106103215761010080835404028352916020019161034c565b820191906000526020600020905b81548152906001019060200180831161032f57829003601f168201915b50505050508152602001600382018054610365906110ae565b80601f0160208091040260200160405190810160405280929190818152602001828054610391906110ae565b80156103de5780601f106103b3576101008083540402835291602001916103de565b820191906000526020600020905b8154815290600101906020018083116103c157829003601f168201915b5050505050815250509150600082600001511461051457600080600084600001518152602001908152602001600020600001541461050e5760008083600001518152602001908152602001600020600080838152602001908152602001600020600082015481600001556001820160009054906101000a900460ff168160010160006101000a81548160ff0219169083151502179055506002820181600201908054610489906110ae565b610494929190610dbc565b5060038201816003019080546104a9906110ae565b6104b4929190610e49565b50905050600080836000015181526020019081526020016000206000808201600090556001820160006101000a81549060ff02191690556002820160006104fb9190610ed6565b60038201600061050b9190610f16565b50505b5061082f565b6000357fffffffff0000000000000000000000000000000000000000000000000000000016604051602001610549919061173a565b604051602081830303815290604052805190602001209050600080828152602001908152602001600020604051806080016040529081600082015481526020016001820160009054906101000a900460ff161515151581526020016002820180546105b3906110ae565b80601f01602080910402602001604051908101604052809291908181526020018280546105df906110ae565b801561062c5780601f106106015761010080835404028352916020019161062c565b820191906000526020600020905b81548152906001019060200180831161060f57829003601f168201915b50505050508152602001600382018054610645906110ae565b80601f0160208091040260200160405190810160405280929190818152602001828054610671906110ae565b80156106be5780601f10610693576101008083540402835291602001916106be565b820191906000526020600020905b8154815290600101906020018083116106a157829003601f168201915b505050505081525050915060008260000151146107f45760008060008460000151815260200190815260200160002060000154146107ee5760008083600001518152602001908152602001600020600080838152602001908152602001600020600082015481600001556001820160009054906101000a900460ff168160010160006101000a81548160ff0219169083151502179055506002820181600201908054610769906110ae565b610774929190610dbc565b506003820181600301908054610789906110ae565b610794929190610e49565b50905050600080836000015181526020019081526020016000206000808201600090556001820160006101000a81549060ff02191690556002820160006107db9190610ed6565b6003820160006107eb9190610f16565b50505b5061082f565b6040517f08c379a0000000000000000000000000000000000000000000000000000000008152600401610826906117c7565b60405180910390fd5b90565b806040517f08c379a0000000000000000000000000000000000000000000000000000000008152600401610866919061182b565b60405180910390fd5b805160208201f35b60008280519060200120905060006001600083815260200190815260200160002054905060008114156108af57838051906020012090505b806040516020016108c09190611878565b604051602081830303815290604052805190602001206001600084815260200190815260200160002081905550604051806080016040528060016000858152602001908152602001600020548152602001600115158152602001848152602001604051806020016040528060008152508152506000808381526020019081526020016000206000820151816000015560208201518160010160006101000a81548160ff021916908315150217905550604082015181600201908051906020019061098b929190610f56565b5060608201518160030190805190602001906109a8929190610fdc565b5090505050505050565b6109c28280519060200120610ce2565b6109cc8282610877565b5050565b6001600260006101000a81548160ff0219169083151502179055508060039080519060200190610a01929190610f56565b5050565b610a158280519060200120610ce2565b610a1f8282610a23565b5050565b6000828051906020012090506000600160008381526020019081526020016000205490506000811415610a5b57838051906020012090505b80604051602001610a6c9190611878565b604051602081830303815290604052805190602001206001600084815260200190815260200160002081905550604051806080016040528060016000858152602001908152602001600020548152602001600015158152602001604051806020016040528060008152508152602001848152506000808381526020019081526020016000206000820151816000015560208201518160010160006101000a81548160ff0219169083151502179055506040820151816002019080519060200190610b37929190610f56565b506060820151816003019080519060200190610b54929190610fdc565b5090505050505050565b60606000808573ffffffffffffffffffffffffffffffffffffffff168585604051610b8a9291906116d4565b600060405180830381855afa9150503d8060008114610bc5576040519150601f19603f3d011682016040523d82523d6000602084013e610bca565b606091505b5091509150818190610c12576040517f08c379a0000000000000000000000000000000000000000000000000000000008152600401610c09919061182b565b60405180910390fd5b5080925050509392505050565b60606000808573ffffffffffffffffffffffffffffffffffffffff168585604051610c4b9291906116d4565b6000604051808303816000865af19150503d8060008114610c88576040519150601f19603f3d011682016040523d82523d6000602084013e610c8d565b606091505b5091509150818190610cd5576040517f08c379a0000000000000000000000000000000000000000000000000000000008152600401610ccc919061182b565b60405180910390fd5b5080925050509392505050565b8060016000838152602001908152602001600020819055505b60008060008381526020019081526020016000206000015414610d8c5760008060008381526020019081526020016000206000015490506000808381526020019081526020016000206000808201600090556001820160006101000a81549060ff0219169055600282016000610d719190610ed6565b600382016000610d819190610f16565b505080915050610cfb565b50565b60405180608001604052806000801916815260200160001515815260200160608152602001606081525090565b828054610dc8906110ae565b90600052602060002090601f016020900481019282610dea5760008555610e38565b82601f10610dfb5780548555610e38565b82800160010185558215610e3857600052602060002091601f016020900482015b82811115610e37578254825591600101919060010190610e1c565b5b509050610e459190611062565b5090565b828054610e55906110ae565b90600052602060002090601f016020900481019282610e775760008555610ec5565b82601f10610e885780548555610ec5565b82800160010185558215610ec557600052602060002091601f016020900482015b82811115610ec4578254825591600101919060010190610ea9565b5b509050610ed29190611062565b5090565b508054610ee2906110ae565b6000825580601f10610ef45750610f13565b601f016020900490600052602060002090810190610f129190611062565b5b50565b508054610f22906110ae565b6000825580601f10610f345750610f53565b601f016020900490600052602060002090810190610f529190611062565b5b50565b828054610f62906110ae565b90600052602060002090601f016020900481019282610f845760008555610fcb565b82601f10610f9d57805160ff1916838001178555610fcb565b82800160010185558215610fcb579182015b82811115610fca578251825591602001919060010190610faf565b5b509050610fd89190611062565b5090565b828054610fe8906110ae565b90600052602060002090601f01602090048101928261100a5760008555611051565b82601f1061102357805160ff1916838001178555611051565b82800160010185558215611051579182015b82811115611050578251825591602001919060010190611035565b5b50905061105e9190611062565b5090565b5b8082111561107b576000816000905550600101611063565b5090565b7f4e487b7100000000000000000000000000000000000000000000000000000000600052602260045260246000fd5b600060028204905060018216806110c657607f821691505b602082108114156110da576110d961107f565b5b50919050565b600082825260208201905092915050565b60008190508160005260206000209050919050565b60008154611113816110ae565b61111d81866110e0565b94506001821660008114611138576001811461114a5761117d565b60ff198316865260208601935061117d565b611153856110f1565b60005b8381101561117557815481890152600182019150602081019050611156565b808801955050505b50505092915050565b600060208201905081810360008301526111a08184611106565b905092915050565b6000604051905090565b600080fd5b600080fd5b600080fd5b600080fd5b6000601f19601f8301169050919050565b7f4e487b7100000000000000000000000000000000000000000000000000000000600052604160045260246000fd5b61120f826111c6565b810181811067ffffffffffffffff8211171561122e5761122d6111d7565b5b80604052505050565b60006112416111a8565b905061124d8282611206565b919050565b600067ffffffffffffffff82111561126d5761126c6111d7565b5b611276826111c6565b9050602081019050919050565b82818337600083830152505050565b60006112a56112a084611252565b611237565b9050828152602081018484840111156112c1576112c06111c1565b5b6112cc848285611283565b509392505050565b600082601f8301126112e9576112e86111bc565b5b81356112f9848260208601611292565b91505092915050565b600067ffffffffffffffff82111561131d5761131c6111d7565b5b611326826111c6565b9050602081019050919050565b600061134661134184611302565b611237565b905082815260208101848484011115611362576113616111c1565b5b61136d848285611283565b509392505050565b600082601f83011261138a576113896111bc565b5b813561139a848260208601611333565b91505092915050565b600080604083850312156113ba576113b96111b2565b5b600083013567ffffffffffffffff8111156113d8576113d76111b7565b5b6113e4858286016112d4565b925050602083013567ffffffffffffffff811115611405576114046111b7565b5b61141185828601611375565b9150509250929050565b600060208284031215611431576114306111b2565b5b600082013567ffffffffffffffff81111561144f5761144e6111b7565b5b61145b84828501611375565b91505092915050565b6000806040838503121561147b5761147a6111b2565b5b600083013567ffffffffffffffff811115611499576114986111b7565b5b6114a5858286016112d4565b925050602083013567ffffffffffffffff8111156114c6576114c56111b7565b5b6114d2858286016112d4565b9150509250929050565b600073ffffffffffffffffffffffffffffffffffffffff82169050919050565b6000611507826114dc565b9050919050565b611517816114fc565b811461152257600080fd5b50565b6000813590506115348161150e565b92915050565b600080fd5b600080fd5b60008083601f84011261155a576115596111bc565b5b8235905067ffffffffffffffff8111156115775761157661153a565b5b6020830191508360018202830111156115935761159261153f565b5b9250929050565b6000806000604084860312156115b3576115b26111b2565b5b60006115c186828701611525565b935050602084013567ffffffffffffffff8111156115e2576115e16111b7565b5b6115ee86828701611544565b92509250509250925092565b600081519050919050565b600082825260208201905092915050565b60005b83811015611634578082015181840152602081019050611619565b83811115611643576000848401525b50505050565b6000611654826115fa565b61165e8185611605565b935061166e818560208601611616565b611677816111c6565b840191505092915050565b6000602082019050818103600083015261169c8184611649565b905092915050565b600081905092915050565b60006116bb83856116a4565b93506116c8838584611283565b82840190509392505050565b60006116e18284866116af565b91508190509392505050565b60007fffffffff0000000000000000000000000000000000000000000000000000000082169050919050565b6000819050919050565b61173461172f826116ed565b611719565b82525050565b60006117468284611723565b60048201915081905092915050565b7f4d6f636b206f6e20746865206d6574686f64206973206e6f7420696e6974696160008201527f6c697a6564000000000000000000000000000000000000000000000000000000602082015250565b60006117b16025836110e0565b91506117bc82611755565b604082019050919050565b600060208201905081810360008301526117e0816117a4565b9050919050565b600081519050919050565b60006117fd826117e7565b61180781856110e0565b9350611817818560208601611616565b611820816111c6565b840191505092915050565b6000602082019050818103600083015261184581846117f2565b905092915050565b6000819050919050565b6000819050919050565b61187261186d8261184d565b611857565b82525050565b60006118848284611861565b6020820191508190509291505056fea26469706673582212201d425ab106baf2ee46b4e9abf7fc7324a530fe0b20f962a9c22d986c2346c79364736f6c634300080a0033",
  "linkReferences": {},
  "deployedLinkReferences": {}
}